:020000040800F2
:10000000A03101204D0200085502000857020008E7
:10001000590200085B0200085D02000800000000B1
:10002000000000000000000000000000A501000822
:100030006102000800000000E90100085D040008FA
:1000400067020008670200086702000867020008EC
:1000500067020008670200086702000867020008DC
:1000600067020008670200086702000867020008CC
:1000700067020008670200086702000867020008BC
:1000800067020008670200086702000867020008AC
:10009000670200086702000867020008670200089C
:1000A000670200086702000867020008670200088C
:1000B000670200086702000867020008670200087C
:1000C000670200086702000867020008670200086C
:1000D000670200086702000867020008670200085C
:1000E000670200086702000867020008670200084C
:1000F000670200086702000867020008670200083C
:10010000670200086702000867020008670200082B
:10011000670200086702000867020008670200081B
:10012000670200086702000867020008670200080B
:1001300067020008670200086702000867020008FB
:1001400067020008670200086702000867020008EB
:1001500067020008670200086702000867020008DB
:1001600067020008670200086702000867020008CB
:1001700067020008670200086702000867020008BB
:100180006702000867020008DFF80CD000F0A2F850
:1001900000480047F9040008A031012040BA704728
:1001A000C0BA7047234B19680868B0E8F04F80F375
:1001B00009884FF0000080F31188704700000000AC
:1001C00003480068006880F3088862B600DF00BF5B
:1001D00008ED00E0DFF80C00016841F470010160F7
:1001E000704700BF88ED00E0EFF30980114B1A68FB
:1001F0001EF0100F08BF20ED108A20E9F04F1060AC
:1002000008B54FF0500080F3118800F00FFE4FF05A
:10021000000080F31188BDE8084019680868B0E85C
:10022000F04F1EF0100F08BFB0EC108A80F3098861
:10023000704700BF38000020EFF311804FF05001ED
:1002400081F31188704780F3118870470648804712
:1002500006480047FEE7FEE7FEE7FEE7FEE7FEE7AB
:10026000FEE7FEE7FEE7FEE77D04000889010008DF
:1002700040EA01039B0703D009E008C9121F08C028
:10028000042AFAD203E011F8013B00F8013B521EA8
:10029000F9D27047D2B201E000F8012B491EFBD21F
:1002A00070470022F6E710B504460846114602469C
:1002B0002046FFF7EFFF204610BD10B5044604E0CE
:1002C0000B7800F8013B03B1491C521EF8D22046BE
:1002D00010BD0000064C074D06E0E06840F0010349
:1002E00094E8070098471034AC42F6D3FFF750FF6C
:1002F000A4150008C41500081CB54FF47040009008
:1003000001208DF8040003208DF80500012108204C
:1003100000F04AF86946024800F004F81CBD0000ED
:10032000000C0240F0B5002201234FF0030C00BF87
:100330000D6803FA02F42540A5422DD10668540049
:100340000CFA04F5AE4306600E790768A6403E43FA
:1003500006600E79012E01D0022E12D18668AE43BE
:1003600086604D798668A54035438560456803FA07
:1003700002F6B543456045688E799640B6B235437E
:100380004560C56856000CFA06F7BD43C560CD79D7
:10039000A540C4682543C560521C102AC8D3F0BDCF
:1003A00042694A4042617047044A0029116801D0FD
:1003B000014300E081431160704700003038024083
:1003C000224900200A6842F480320A604FF4A06398
:1003D0000A6800F1010012F4003F01D19842F7D100
:1003E0000868800331D519484030026842F08052D5
:1003F00002601748026842F48042026013480830E5
:1004000002680260026842F400420260026842F43C
:10041000A0520260031F0F4A1A600A6842F08072FD
:100420000A600A689201FCD50B4A40F2056111602E
:10043000016821F003010160016841F002010160DF
:100440000168C1F381010229FAD1704700380240E6
:100450000070004008544007003C0240064910B5B7
:100460004FF080500860FFF7E7FE00F0ABFBBDE8FF
:1004700010400020FFF7E7BE04ED00E0124810B581
:10048000016841F4700101601048016841F0010108
:1004900001600E4A00210832116002680C4B1A40BC
:1004A0000260031D0B4A1A60026822F48022026077
:1004B00006480C300160FFF783FF03494FF00060EE
:1004C0008039086010BD000088ED00E0003802406F
:1004D000FFFFF6FE1030002402E008C8121F08C11A
:1004E000002AFAD170477047002001E001C1121FB5
:1004F000002AFBD1704700001FB5FFF7FDFE002466
:1005000004260C4D0096CDE90154234682220AA10F
:100510000B48039400F09AFE0096CDE901540023A5
:10052000822205A10748039400F090FE00F04CFCE5
:10053000FEE700000000002054494D450000000087
:10054000490500087105000808B500F04FFF074D88
:100550004FF400544FF47A76009021462846FFF776
:100560001FFF3146684600F0FDFAF6E7000C024036
:1005700008B500F03BFF074D4FF400444FF4FA7606
:10058000009021462846FFF70BFF3146684600F0F1
:10059000E9FAF6E7000C024070B50B4D04462868F6
:1005A0004460E8682968844201F1040104D2A86B20
:1005B000BDE8704000F05EBA686B00F05BFA286B33
:1005C000844200D22C6370BD3800002010B500F0CA
:1005D00077FA0C4C206880B90B4800F03DFA0A48C5
:1005E000143000F039FA0848A0601430E0600022AE
:1005F0000C210A2000F066FC2060BDE8104000F0ED
:1006000069BA000074000020742D012070B5124EEC
:10061000124D1AE000F002FC3068D0B100F022FF69
:1006200000F04EFAF068C468201D00F0E5F9A868F3
:10063000401EA8606868401E686000F04BFA206B9E
:1006400000F052FA204600F04FFA68680028E1D125
:1006500070BD00F007FFF8E74C2D012038000020A6
:1006600030B40B46016800290DD0C468026C1444F4
:10067000C4604568AC4201D2214600E0C16030BC94
:100680001846FFF7F5BD30BC704710B5044610465C
:10069000226C8AB1C8B1E068FFF7EAFDE168206C1E
:1006A000091AE1602268914202D26168081AE0608A
:1006B000A06B401CA06310BD20680028F8D16068C2
:1006C00000F01EFB00206060F2E7A068FFF7D0FD9D
:1006D000216CA0680844A06061688842E8D3206863
:1006E000A060E5E7054C00BFFFF790FF20680128F8
:1006F00001D900F011FA00F093F9F5E7AC2C0120D4
:1007000070B500240B4D41609142006106D8D11AAA
:100710008269914206D2011DE86807E09A4203D23D
:10072000994201D3012403E0011DA86800F0A2F959
:10073000204670BD7400002030B587B0254D3EE0E6
:10074000069C606910B1201D00F056F902A800F067
:1007500089F80246049830B1012830D002281FD011
:1007600003282CD128E00598A169034601442046BE
:10077000FFF7C6FF012822D1616A20468847E06959
:1007800001281CD1002000900598A169002342187F
:100790001946204600F0E2FE88B9FFF74DFDFEE75E
:1007A0000598A06128B1811813462046FFF7A8FFDD
:1007B00005E0FFF741FDFEE7204600F095F9002334
:1007C0001A4604A9286800F0A1FB0028B8D107B098
:1007D00030BD0000740000202DE9FC4105460F46A5
:1007E00000F01CFB01A800F03DF80446019818B188
:1007F00000F038FEBDE8FC81194E37BBA54224D875
:1008000000F030FEB0682746C068C468201D00F0C4
:10081000F3F8E069012811D1A0692B4641193A4645
:100820002046FFF76DFF012808D10020034601464E
:1008300000902A46204600F091FE18B1616A2046D9
:100840008847D7E7FFF7F8FCFEE7291B306800F080
:100850006BF900F007FE0028CCD100F05DF9C9E784
:100860007400002070B5054600F0C0FD064E044639
:100870007068844203D200F009F8012000E00020F3
:1008800028602046746070BD74000020F8B5174ED3
:1008900020E0C1680D68C068C468201D00F0ACF895
:1008A000616A20468847E069012813D1A06928447D
:1008B000A84206D924616060211DB06800F0DAF812
:1008C00008E000200346014600902A46204600F03A
:1008D00045FE38B1B06801680029DAD1F168C6E98F
:1008E0000210F8BDFFF7A8FCFEE70000740000202E
:1008F000074CA068016841B1C0680021D0F8000031
:10090000FFF76AFFFFF718FFF3E701210020F7E781
:100910007400002070B5044600F0D2F804F12405FC
:100920000AE0606A58B1284600F06CFD08B100F09A
:10093000A7F9A06C401EA064A06C0028F1DC4FF069
:10094000FF36A66400F0C6F800F0BAF804F110050E
:100950000AE0206958B1284600F054FD08B100F0C3
:100960008FF9606C401E6064606C0028F1DC666486
:10097000BDE8704000F0AEB870B5044600254007F1
:1009800004D004F00700C0F10800044400F046FA67
:100990000D48416819B90D4921F00701416002680D
:1009A0000B4B1119994208D2914206D94368016054
:1009B0009D1800F057FD15B103E000F053FD00F065
:1009C0003BF8284670BD00002C0000208C00002061
:1009D000F82B010010B5031F4FF08074A0F1240024
:1009E0001C60C1614FF0000181616FF0020160E89D
:1009F000111200F1240010BDD0E901128A60D0E983
:100A00000112516001694A68824201D182684A60DC
:100A1000002202610868401E0860086870470000F4
:100A20000448D0E90412491C42F10002C0E9041252
:100A30007047000000000020FFF7FEFBFEE700000B
:100A40000448D0E90212491C42F10002C0E9021236
:100A5000704700000000002000F108014FF0FF3255
:100A6000C0E90112C16001610021016070470021ED
:100A70000161704710B50B685A1C02D000F10802E2
:100A800002E0026904E05268546824689C42FAD982
:100A900053684B6099608A60516008610168491C25
:100AA000016010BD426853684B6043688B605368B7
:100AB00099605160416008610168491C016070479C
:100AC00010B5FFF7B9FB02480168491C016010BD71
:100AD0003400002003490868401E086001D1FFF778
:100AE000B2BB70473400002010B5002802D0FFF7D9
:100AF000A3FBFEE710BD000006484FF47A710068C2
:100B0000B0FBF1F14FF0E020491E41610721016186
:100B1000704700001800002002494FF08050086024
:100B20007047000004ED00E070B50D460446FFF785
:100B3000C7FF616C4FF00000491C00D16064A16CDC
:100B4000491C00D1A064FFF7C5FFA06B20B929465E
:100B500004F1240000F0BCF82046BDE87040FFF727
:100B6000D9BE000010B502000B460BD06BB100F0EF
:100B700055F910681249C418CB68984211D9A0429F
:100B800011D813E0FFF758FBFEE7FFF755FBFEE730
:100B900014600868001DFFF72FFF2046FFF7FCFCDC
:100BA00005E0A042F4D8C8688442F1D8146000F08F
:100BB00059FC002803D1BDE81040FFF7ADBF10BDC0
:100BC000380000202DE9F0412B4DE86958B1286A22
:100BD000401C2862FFF734FF286A00284AD1BDE88C
:100BE000F041FFF72DBFE868401CE860E8684FF06F
:100BF000FF36A0B9686B006810B1FFF71DFBFEE778
:100C0000686BA96B6963A863A86A401CA862686BDB
:100C10000068A8B1686BC068C06840682863E8686D
:100C2000296B8842D8D3154F686B006850B1686B48
:100C3000C068C468E9686068814205D22863CBE770
:100C40002E63ECE72E63C7E7201DFFF7D5FEA06AF1
:100C500018B104F11800FFF7CFFEE06A6969884215
:100C600000D9686100EB800007EB8000211DFFF7D1
:100C700019FFD9E7BDE8F08138000020AC2C012035
:100C800001490120486270473800002070B50C46C9
:100C900080B10D4D29681831FFF7ECFE2868001D62
:100CA000FFF7AAFE601C08D0E8682044BDE8704049
:100CB000FFF772BCFFF7C0FAFEE72968BDE8704095
:100CC000091D0248FFF7EEBE38000020602D01200C
:100CD00070B50C4670B1094D29681831FFF7E2FE76
:100CE0002868001DFFF788FEE8682044BDE87040D2
:100CF000FFF752BCFFF7A0FAFEE700003800002023
:100D000010B504001BD0A16CE06A884217D0201DEA
:100D1000FFF772FEA06CE062C0F105000849A06117
:100D2000E06A4A69904200D94861064900EB8000B8
:100D300001EB8000211DBDE81040FFF7B3BE10BDE0
:100D400038000020AC2C012070B5040029D0154DCE
:100D5000E06A2968C96A884223D22868124EC06AAC
:100D6000C0F10500A061E16A606901EB810106EB59
:100D70008101884212D1201DFFF73EFE2868C06A1B
:100D8000E0626969884200D9686100EB800006EB87
:100D90008000211DBDE87040FFF784BE2868C06A4E
:100DA000E06270BD38000020AC2C012010B528B1E5
:100DB00004498A6A0260C968416010BDFFF73CFAC5
:100DC000FEE70000380000201FB5002400940194C5
:100DD0000294234682220DA10E48039400F036FAB5
:100DE000012803D100F098FB012804D000280CD181
:100DF000FFF722FAFEE7FFF71FFA0748012181619A
:100E0000C460BDE81F4000F03DB81FBD49444C45DB
:100E100000000000E5060008380000200248C16913
:100E2000491CC1617047000038000020134810B50C
:100E3000C269134932B10121416210BDD2B1426988
:100E4000521E4261426902EB820251F82220002ABE
:100E50004269F3D002EB820201EB82014A685268D8
:100E600001F108034A609A4201D152684A60D16890
:100E7000016010BDFFF7E0F9FEE700003800002038
:100E8000AC2C01200C4810B5016841F470010160E0
:100E9000016841F070410160FFF72EFE0749002014
:100EA0000860FFF797F90648016841F0404101608A
:100EB000FFF786F9002010BD20ED00E0340000208F
:100EC00034EF00E02DE9F04105000E46174619D039
:100ED0005020FFF751FD040014D005FB06F0401C24
:100EE000FFF74AFD206050B1C4E90F5601212046AA
:100EF00000F09BF884F84D702046BDE8F081204654
:100F0000FFF7F2FDFFF798F9FEE700002DE9FF413A
:100F1000002582B00E469846040002D000271EB17C
:100F200007E0FFF789F9FEE7206C10B1FFF784F9BD
:100F3000FEE7FFF7C5FDA06B50B331462046E568DC
:100F4000FFF78EFBB8F1000F10D0E560606A38B192
:100F500004F1240000F056FA10B100BFFFF7DCFDE9
:100F6000FFF7B8FD012006B0BDE8F081A06B401E80
:100F7000A063206810B900F025FA6060206900289D
:100F8000EED004F1100000F03DFA0128E6D0E7E7CA
:100F9000049808B11DB106E0FFF79CFD1DE068460E
:100FA000FFF704FF0125FFF795FDFFF737FFFFF778
:100FB00087FD606C401C00D16764A06C401C00D1B0
:100FC000A764FFF787FD04A9684600F011F930B166
:100FD0002046FFF79FFC00F045FA0020C3E7FFF72B
:100FE0006FFDA06B38B1FFF775FD2046FFF792FC4F
:100FF00000F038FA9DE7FFF76DFD206830B9FFF784
:101000005FFD6068FFF7A0FEFFF764FD04F12400B8
:101010000499FFF73BFE2046FFF77CFC00F022FA24
:10102000002886D1FFF778FD83E770B504000D46F0
:1010300023D0FFF745FDD4E90F20216802FB001102
:1010400061600021A1632168A1600A46E06B216C08
:10105000401E00FB01214FF0FF30E1606064A0649E
:1010600004F1100065B1FFF7F7FC04F12400FFF76D
:10107000F3FCFFF72FFD012070BDFFF7DDF8FEE761
:1010800021690029F5D000F0BDF90128F1D1FFF761
:1010900043FDEEE72DE9FF41002582B00E4698465C
:1010A000040002D000271EB107E0FFF7C5F8FEE7F5
:1010B000206C10B1FFF7C0F8FEE7FFF701FDA06B51
:1010C000E16B884214D2424631462046FFF7DDFAF2
:1010D000606A38B104F1240000F094F9012801D1CC
:1010E000FFF71AFDFFF7F6FC012006B0BDE8F0811E
:1010F000049808B11DB106E0FFF7ECFC1DE068465E
:10110000FFF754FE0125FFF7E5FCFFF787FEFFF729
:10111000D7FC606C401C00D16764A06C401C00D1FF
:10112000A764FFF7D7FC04A9684600F061F830B166
:101130002046FFF7EFFB00F095F90020D5E7FFF719
:10114000BFFCA06BE16B884210D1FFF7C3FC04F138
:1011500010000499FFF79AFD2046FFF7DBFB00F033
:1011600081F90028A9D1FFF7D7FCA6E7FFF7B2FC69
:101170002046FFF7CFFB00F075F99EE72DE9F0411F
:101180000E4615469846040001D01EB107E0FFF751
:1011900053F8FEE7206C10B1FFF74EF8FEE7FFF7BB
:1011A0004BF80746A06BE16B88421AD242463146A3
:1011B0002046FFF76AFAA06C401C04D0A06C401CCB
:1011C000A06401240EE0606A0028FAD004F1240033
:1011D00000F018F90028F4D0002DF2D0012028608A
:1011E000EFE700243846FFF72EF82046BDE8F081EF
:1011F00070B504000D461CD0F5B1FFF761FC2868FE
:10120000411C14D0104922688B6A9A4203D062684C
:10121000CB689A4213D96268CB689B1A83420ED27C
:10122000C968891A401A28602046FFF7BFFD0024CC
:1012300006E0FFF701F8FEE7FEF7FEFFFEE70124F8
:10124000FFF748FC204670BD380000202DE9FF5F05
:101250005FEA000BDDE90F850E9E8A46174604D033
:10126000052E05D3FEF7E8FFFEE7FEF7E5FFFEE7F4
:101270004C20FFF781FB04001DD04FEA87099DB188
:1012800028462063A0B1A5224946FFF703F86FF076
:101290000301206B01EB8701084420F00705680774
:1012A0000CD0FEF7C9FFFEE74846FFF765FBE8E70D
:1012B0002046FFF719FC4FF0FF347AE051460A222E
:1012C00004F13400FEF7F9FF002084F83D00E662E7
:1012D000201DA664FFF7CBFB04F11800FFF7C7FB46
:1012E000C6F105002461A061646259462846039A4C
:1012F000FFF770FB2060B8F1000F01D0C8F8004084
:10130000FFF7DEFB2D4FB868401CB8603868DFF887
:10131000B08010B1B86940B32CE03C60B8680128D7
:1013200028D1002505EB850108EB8100FFF794FB30
:101330006D1C052DF6D322486430FFF78DFB204845
:101340007830FFF789FB1E488C30FFF785FB1C487F
:10135000A030FFF781FB1A48B430FFF77DFB184837
:10136000643078631430B86304E03868C06AB0420F
:1013700000D83C60E06A3969884200D93861F96A6E
:10138000491CF96221647969884200D9786100EBCF
:10139000800108EB8100211DFFF784FB0124FFF78A
:1013A00099FBB86928B13868C06AB04201D2FFF72A
:1013B000B3FB04B02046BDE8F09F000038000020D9
:1013C000AC2C012001480068704700003800002064
:1013D0000548816919B1C06918B102207047002021
:1013E00070470120704700003800002010B5FFF75B
:1013F00067FB0348C468FFF76DFB204610BD000083
:101400003800002070B5C068C46854B104F11800F9
:101410000546FFF7F1FA114EF06928B12946104848
:1014200011E0FEF709FFFEE7201DFFF7E5FAE06A8D
:101430007169884200D97061094900EB80008C39DC
:1014400001EB8000211DFFF72DFBE06A3168C96ABE
:10145000884201D3012070BD002070BD38000020FB
:10146000382D01202DE9F047294F0026F86938B1C1
:10147000FFF726FBF869401EF861F86918B141E0F2
:10148000FEF7DAFEFEE7B86888B3DFF8888000254B
:10149000A8F18C091AE0C068C46804F11800FFF7CD
:1014A000ABFA201DFFF7A8FAE06A7969884200D9F3
:1014B000786100EB800109EB8100211DFFF7F2FA52
:1014C000E06A3968C96A884200D30125D8F800105B
:1014D00040460029DFD1386A28B909E0FFF772FBDE
:1014E000386A401E3862386A0028F7D105E009E002
:1014F000012D02D0786A012804D1002001267862EB
:10150000FFF70AFBFFF7E6FA3046BDE8F087000078
:1015100038000020382D01201FB5FFF757F80B4881
:10152000006870B100200221CDE90010029003464E
:1015300003904FF4827206A10748FFF787FE002848
:1015400002D1FEF779FEFEE704B010BD7400002062
:10155000546D722053766300F1080008FEB5104DFB
:10156000064694461A46089C2868002398B1CDE99F
:10157000001C02961AB16946FFF700FE0AE0FFF769
:1015800027FF01284FF0000307D000226946286892
:10159000FFF780FD03461846FEBD2246F6E7000031
:1015A00074000020C4150008000000208400000022
:1015B000D804000848160008840000201C310100EF
:1015C000E804000800000000000000000000000027
:1015D000000000000000000000000000007A030A84
:1015E00000000000000000000102030406070809D3
:1015F0000000000000000000AAAAAAAA0000000043
:1016000000000000000000000000000000000000DA
:1016100000000000000000000000000000000000CA
:10162000000000000000000000000000FFFFFFFFBE
:1016300000000000000000000000000000000000AA
:081640000000000000000000A2
:040000050800018965
:00000001FF
